:100000000C9446000C9465000C9465000C946500FB
:100010000C9465000C9465000C9465000C946500CC
:100020000C9465000C9465000C9465000C946500BC
:100030000C9465000C94C7060C9465000C94650044
:100040000C9465000C9465000C9465000C9465009C
:100050000C9465000C9465000C9465000C9465008C
:100060000C9465000C9465000C9465000C9465007C
:100070000C9465000C9465000C9465000C9465006C
:100080000C9465000C9465000C94650011241FBE4F
:10009000CFEFD0E4DEBFCDBF11E0A0E0B1E0E4E3FC
:1000A000F2E100E00BBF02C007900D92AE3DB10738
:1000B000D9F712E0AEEDB1E001C01D92A936B1074B
:1000C000E1F70E94BE070C9418090C940000CF932E
:1000D000C82F8A3019F48DE00E9467009091C0000B
:1000E00095FFFCCFC093C60080E090E0CF910895CB
:1000F000009719F00197D9F13FC0009947C080914E
:10010000E401813029F41092E40181E090E0089547
:10011000811137C08091DF0181110AC09091DE0109
:10012000911106C081E08093E40181E090E00895A0
:10013000813021F08091DE01813031F51092E401AF
:1001400081E18093E3011092E2011092E1011092AB
:10015000E0011092DF011092DE01E2E1F1E081E0C6
:10016000808B868F84A715B881E090E0089581E0A8
:10017000009980E090E008951092E40180E090E022
:10018000089581E090E0089581E090E0089500975F
:1001900021F08130910551F014C02091E3012A3003
:1001A00011F02A31D1F4019B13C017C02091E30153
:1001B0002A3011F02A3179F4019B0FC080E090E0E1
:1001C0000CC01092E2011092E10180E090E005C0C5
:1001D00081E090E002C080E090E081309105C9F5B7
:1001E0002091E3012A3051F4E091E201F0E0E05186
:1001F000FE4F3081313069F1333059F12A3141F409
:10020000E091E101F0E0E35EFE4F3081313009F131
:100210002A3141F4E091E101F0E0E35EFE4F2081FC
:100220002330B9F03091E20121E0303208F020E0D3
:10023000230F2093E2014091E10131E0403208F0C8
:1002400030E0340F3093E101203219F421E02093A3
:10025000E001089540E050E00CC000002F5F3F4FE8
:1002600002C020E030E0273063E03607B4F34F5F90
:100270005F4F48175907ACF308955E9888B95F9AA5
:1002800000005F9882E090E00E942A01089581E0DA
:100290000E943D010895813120F481580E943D0162
:1002A000089581550E943D01089584E690E00E94E2
:1002B0002A0188E30E943D0186E00E943D018FE013
:1002C0000E943D0181E00E943D018AE090E00E9491
:1002D0002A0108955E9A88B95F9A00005F9881E0CC
:1002E00090E00E942A010895EF92FF920F931F93CE
:1002F000CF93DF93182FEB010E9447010EC001E05E
:10030000010F812F0E944B017E018FEFE81AF80A3E
:1003100088810E946A01102FE70188818111EFCF47
:10032000DF91CF911F910F91FF90EF900895E09191
:10033000E301E03279F48091E101AE2FB0E0A80F43
:10034000B11DAE5FBE4F8C91843021F481E080936B
:10035000DF011CC0E13158F48091E201AE2FB0E022
:10036000A80FB11DAB51BE4F8C91823061F0E131CD
:1003700068F08091E101F0E0E80FF11DEE5FFE4FC3
:100380008081823019F481E08093DE018091DE016A
:10039000882361F01092E4010E94470163E971E053
:1003A00081E00E94740180E00E944B0180E090E0B7
:1003B0000895CF93DF93EC0180B18095887090B160
:1003C00090959270C130D105A1F0C230D105E1F015
:1003D000209729F52091E401222321F0882311F0B0
:1003E000992319F1222391F1811130C0911120C07C
:1003F0002DC02091E4012223F1F08823F9F0992304
:1004000029F1C0E0D0E022C02091E4012223C9F00C
:1004100081111AC091111AC0C0E0D0E017C081E16B
:100420008093E301C0E0D0E011C0C1E0D0E00EC095
:10043000C2E0D0E00BC0C0E0D0E008C0C0E0D0E037
:1004400005C0C0E0D0E002C0C0E0D0E0C130D105BE
:1004500021F0C230D10589F184C08091E30181305F
:1004600009F47FC0813109F47CC0813198F4909106
:10047000E201E82FF0E0E90FF11DEC51FE4F908111
:10048000933009F46EC0913009F46BC081508093B1
:10049000E30167C09091E101E82FF0E0E90FF11D61
:1004A000EF5FFE4F9081933009F45BC0913009F407
:1004B00058C081508093E30154C08091E0018111C4
:1004C00029C08091E3018A3108F04BC0813188F462
:1004D0009091E201E82FF0E0E90FF11DEA51FE4FA3
:1004E00090819330F1F19130E1F18F5F8093E301DE
:1004F00038C09091E101E82FF0E0E90FF11DED5FC8
:10050000FE4F9081933069F1913059F18F5F809364
:10051000E30127C08091E301803218F5813188F42E
:100520009091E201E82FF0E0E90FF11DEA51FE4F52
:1005300090819330B1F09130A1F08F5F8093E3010F
:1005400010C09091E101E82FF0E0E90FF11DED5F9F
:10055000FE4F9081933029F0913019F08F5F809396
:10056000E3018091E401882379F00E94470180E251
:100570000E946A018091E3010E944B0180E00E9489
:100580006A0180E00E944B01CE01DF91CF91089576
:10059000CF93DF93EC0180B180958470C130D10599
:1005A00031F1C230D10509F493C0209709F0FBC0A6
:1005B0009091E401992309F40AC1882309F407C141
:1005C0008091E301813108F402C19091E201E82FAA
:1005D000F0E0E90FF11DEB52FE4F9081933009F4EA
:1005E000F6C080518093E301C1E0D0E0F0C080917B
:1005F0006802823008F4EBC08091E301803108F09A
:10060000D5C02091E10130E0F901E80FF11DEE5E67
:10061000FE4F9081933009F4CCC0805F8093E3015A
:10062000280F311DC9014097FC01EE5EFE4F40814D
:10063000413009F0C1C0FC01EE5EFE4F45E0408351
:100640002032310511F484E085B92091E1018091D7
:10065000E30190E0820F911D8E9749F48091220171
:10066000853019F486E085B902C082E085B9209111
:10067000E1018091E30190E0820F911DCC9709F098
:100680009EC080912201853071F4809130018530C7
:1006900029F487E085B9C0E0D0E099C085E085B94C
:1006A000C0E0D0E094C090913001953061F4853085
:1006B00029F487E085B9C0E0D0E089C083E085B93E
:1006C000C0E0D0E084C081E085B9C0E0D0E07FC068
:1006D0008091E301803108F07AC02091E10130E09F
:1006E000F901E80FF11DEE5EFE4F9081933009F4A1
:1006F0006EC0805F8093E301280F311DC9014097D0
:10070000FC01EE5EFE4F4081413009F05BC0FC0110
:10071000EE5EFE4F45E040832032310511F484E067
:1007200085B92091E1018091E30190E0820F911D54
:100730008E9749F480912201853019F486E085B9BD
:1007400002C082E085B92091E1018091E30190E04F
:10075000820F911DCC97C9F580912201853071F4EB
:1007600080913001853029F487E085B9C0E0D0E080
:100770002EC085E085B9C0E0D0E029C0909130015D
:10078000953061F4853029F487E085B9C0E0D0E088
:100790001EC083E085B9C0E0D0E019C081E085B912
:1007A000C0E0D0E014C0C0E0D0E011C0C2E0D0E0B2
:1007B0000EC0C2E0D0E00BC0C0E0D0E008C0C0E096
:1007C000D0E005C0C0E0D0E002C0C0E0D0E020979B
:1007D00021F0C130D10521F00CC01092680209C08F
:1007E00080916802823010F48F5F01C080E08093B6
:1007F00068028091E301811103C081E08093E301ED
:100800008091E001811110C08091E3018B5086300E
:1008100018F48AE08093E3018091E3018B518530E5
:1008200018F48AE18093E3018091E401882379F050
:100830000E94470180E20E946A018091E3010E94C8
:100840004B0180E00E946A0180E00E944B01CE01D2
:10085000DF91CF910895EF92FF921F93CF93DF9393
:100860008230910589F02CF4009751F0019719F12D
:100870001FC08430910599F06CF00597B1F018C055
:10088000EE24E394F12C1BC00F2EF3E0EF2EF12C9D
:10089000F02D15C06894EE24E2F8F12C10C00F2E54
:1008A000F5E0EF2EF12CF02D0AC0E12CF12C07C061
:1008B000E12CF12C04C06894EE24E1F8F12C82E0E4
:1008C000E816F10409F49DC04CF4E114F10499F028
:1008D00081E0E816F10409F451C09EC184E0E816F5
:1008E000F10409F414C10CF4CFC085E0E816F1045A
:1008F00009F450C191C180912201853049F4E2E1AF
:10090000F1E012861386148615861686178609C0AE
:10091000E2E1F1E01286138614861586168682E0DF
:10092000878780913001853049F4E2E1F1E0108E53
:10093000118E128E138E148E158E09C0E2E1F1E035
:10094000108E118E128E138E82E0848F858F80918F
:100950003E01853049F4E2E1F1E016A217A210A6AB
:1009600011A612A613A658C1E2E1F1E016A217A241
:1009700010A682E081A712A683A74EC18091220112
:10098000853049F4E2E1F1E012861386148615867B
:100990001686178609C0E2E1F1E0128613861486F6
:1009A000158682E08687178680913001853049F46C
:1009B000E2E1F1E0108E118E128E138E148E158EE0
:1009C00009C0E2E1F1E0108E118E128E82E0838F79
:1009D000848F158E80913E01853049F4E2E1F1E08B
:1009E00016A217A210A611A612A613A615C1E2E11F
:1009F000F1E016A217A282E080A711A682A713A693
:100A00000BC180912201853049F4E2E1F1E01286C8
:100A10001386148615861686178609C0E2E1F1E072
:100A200012861386148682E0858716861786809143
:100A30003001853049F4E2E1F1E0108E118E128E22
:100A4000138E148E158E09C0E2E1F1E0108E118E26
:100A500082E0828F838F148E158E80913E018530C7
:100A600049F4E2E1F1E016A217A210A611A612A61F
:100A700013A6D2C0E2E1F1E016A282E087A310A69D
:100A800081A712A613A6C8C080912201853049F41F
:100A9000E2E1F1E012861386148615861686178623
:100AA00009C0E2E1F1E01286138682E084871586B0
:100AB0001686178680913001853049F4E2E1F1E035
:100AC000108E118E128E138E148E158E09C0E2E1D7
:100AD000F1E0108E82E0818F828F138E148E158E3E
:100AE00080913E01853049F4E2E1F1E016A217A2BF
:100AF00010A611A612A613A68FC0E2E1F1E082E0D3
:100B000086A317A280A711A612A613A685C080915E
:100B10002201853049F4E2E1F1E012861386148661
:100B200015861686178609C0E2E1F1E0128682E09A
:100B30008387148615861686178680913001853046
:100B400049F4E2E1F1E0108E118E128E138E148EB4
:100B5000158E09C0E2E1F1E082E0808F818F128E74
:100B6000138E148E158E80913E01853049F4E2E19A
:100B7000F1E016A217A210A611A612A613A64CC049
:100B8000E2E1F1E016A282E087A310A611A612A668
:100B900083A742C080912201853049F4E2E1F1E06F
:100BA00012861386148615861686178609C0E2E11A
:100BB000F1E082E0828713861486158616861786F2
:100BC00080913001853049F4E2E1F1E0108E118E20
:100BD000128E138E148E158E09C0E2E1F1E082E0D0
:100BE000808F118E128E138E148E858F80913E0110
:100BF000853049F4E2E1F1E016A217A210A611A691
:100C000012A613A609C0E2E1F1E082E086A317A2D2
:100C100010A611A682A713A68091E40181114FC0EE
:100C20008091DF01811151C08091DE0181114DC0A1
:100C300061EB71E081E00E94740181E10E944B014F
:100C400080E00E946A0180E20E944B0184E00E94E1
:100C50006A0180E00E944B0138C0C12FD0E0809132
:100C6000E201FE01E80FF11DEB51FE4F8081882368
:100C700069F0812F0E944B018091E201FE01E80F93
:100C8000F11DEB51FE4F80810E946A018091E101CC
:100C9000FE01E80FF11DEE5EFE4F8081882369F0B2
:100CA00080E1810F0E944B018091E101C80FD11DAD
:100CB000CE5EDE4F88810E946A011F5F01C011E095
:100CC000113158F280E00E944B01C701DF91CF91B2
:100CD0001F91FF90EF9008950F931F93CF938B0177
:100CE00028E08202C001112480640E943D01C0E01E
:100CF00009C0F801EC0FF11DC7FDFA9580810E9433
:100D00006A01CF5FC830ACF380E80E943D01CF910B
:100D10001F910F91089560938101709382018093D8
:100D2000830190938401609316027093170280935D
:100D300018029093190208958BE0809381008DE74B
:100D400090E0909389008093880082E080936F0008
:100D5000109285001092840080918101909182010F
:100D6000A0918301B09184018093160290931702A1
:100D7000A0931802B09319028FB780688FBF0895AF
:100D800010928100089581E080931A0208951F92C5
:100D90000F920FB60F9211240BB60F922F933F9321
:100DA0004F935F936F937F938F939F93AF93BF9373
:100DB000EF93FF938091160290911702A091180271
:100DC000B09119020197A109B1098093160290937D
:100DD0001702A0931802B0931902892B8A2B8B2B30
:100DE00091F40E94C3068091810190918201A091AB
:100DF0008301B09184018093160290931702A0930F
:100E00001802B0931902FF91EF91BF91AF919F919A
:100E10008F917F916F915F914F913F912F910F90A3
:100E20000BBE0F900FBE0F901F9018950F931F933E
:100E3000CF93DF93B62FA72FF82FE92F022F132F71
:100E4000D42FC52F04C0062F172FD82FC92F6B2FD3
:100E50007A2F8F2F9E2F202F312F4D2F5C2F0E9406
:100E6000F608B02FA12FFD2FEC2F6115710581051C
:100E7000910549F7602F712F8D2F9C2FDF91CF9116
:100E80001F910F910895F999FECF92BD81BD60BD6C
:100E9000FA9AF99A0895F999FECF92BD81BDF89A10
:100EA00080B508951F93CF93DF9320B1892B19F458
:100EB000C1E0D0E002C0C0E0D0E0209721F0C13016
:100EC000D10589F156C08091DF01882309F451C012
:100ED0001092E40180912201853011F010E001C0F0
:100EE00011E080913001853009F41F5F80913E014F
:100EF000853009F41F5F80E090E00E944B07811766
:100F000028F4612F80E090E00E94430761EC71E0DB
:100F100081E00E94740180E3810F0E946A0180E0F9
:100F20000E944B0126C08091DF01882311F180913E
:100F3000E40181111EC080E090E00E944B071DEC8F
:100F4000819F112D1124169516951695110F912F2D
:100F5000990F990F190F811B182F60ED71E082E135
:100F60000E94740180E3810F0E946A0180E00E9468
:100F70004B01CE01DF91CF911F910895CF93DF9365
:100F8000CDB7DEB72E970FB6F894DEBF0FBECDBF3C
:100F900011B81FEF14B917B91AB912B915B818B8A2
:100FA0001BB824E630E040E050E062E370E080E00F
:100FB00090E00E94160724E630E040E050E00E94F6
:100FC000160724E630E040E050E00E94160724E6D1
:100FD00030E040E050E00E94160724E630E040E0B8
:100FE00050E00E94160724E630E040E050E00E9406
:100FF00016074B015C0162E370E080E090E0A50120
:1010000094010E94F60869017A0164E670E080E0CC
:1010100090E0A50194010E94F6088EE0E5E8F1E079
:10102000DE01119601900D928A95E1F7EDE5F2E06F
:101030001083C182D282E382F482C582D682E782A3
:10104000F08688E790E092878187E2E5F2E01083FE
:101050002183328343835483258336834783508798
:1010600089ED91E092878187E7E4F2E010832183A4
:10107000328343835483258336834783508788ECA8
:1010800092E092878187ECE3F2E010832183328340
:1010900043835483258336834783508787EC90E0CE
:1010A00092878187E1E3F2E01083218332834383D7
:1010B0005483258336834783508787E991E092875D
:1010C0008187E6E2F2E010832183328343835483F5
:1010D00025833683478350878BE294E0928781870C
:1010E000EBE1F2E010832183328343835483258331
:1010F00036834783508782E597E092878187C501D1
:10110000B4010E948B060E949C060E94550180E05B
:1011100090E00E944B078F3F29F460E080E090E070
:101120000E9443076BE671E080E00E946C0663E674
:1011300071E081E00E946C066BE571E082E00E9444
:101140006C0663E571E083E00E946C0663E471E085
:1011500084E00E946C066BE471E085E00E946C06FE
:10116000E12CF12C38C0F701EE0FFF1FEC0FFD1F33
:1011700001811281D80115964D915D916D917C91FF
:10118000189711968D919D910D90BC91A02D4817A7
:1011900059076A077B0781F4D8011996ED91FC91F4
:1011A0001A978C91992787FD90950995F80180836E
:1011B0001582168217821086F80185819681A78193
:1011C000B0850196A11DB11D85839683A783B08745
:1011D000FFEFEF1AFF0A87E0E816F10420F2809192
:1011E0001A028823E1F310921A02BACFA1E21A2E52
:1011F000AA1BBB1BFD010DC0AA1FBB1FEE1FFF1FBB
:10120000A217B307E407F50720F0A21BB30BE40B0A
:10121000F50B661F771F881F991F1A9469F7609551
:101220007095809590959B01AC01BD01CF0108950B
:04123000F894FFCF60
:10123400262728292A2B18191A1B1C1D0A0B0C0DEA
:101244000E0F000000000300000000030000000077
:101254000000010000030003000300000000000080
:10126400010000000003030300000000000001006F
:101274000300040F0F0F080808081F0000000000F7
:101284000A040A00000E1F1F1F1F1F00000F1F1F4C
:101294000F00000707011D070107050E0E0E150EAE
:1012A400040A1100000002000000006700000000B2
:1012B40000010000005D02520247023C0231022696
:1012C400021B02202020596F7520204C6F7365216A
:1012D40020202020202047616D65204F76657221F3
:1012E400005363726F6C6C65723A204D6172696F62
:1012F400002057696E212053636F72653A202000E5
:0E130400426573742053636F72653A202000B7
:00000001FF
