:100000000C9446000C9465000C9465000C946500FB
:100010000C9465000C9465000C9465000C946500CC
:100020000C9465000C9465000C9465000C946500BC
:100030000C9465000C9457040C9465000C946500B6
:100040000C9465000C9465000C9465000C9465009C
:100050000C9465000C9465000C9465000C9465008C
:100060000C9465000C9465000C9465000C9465007C
:100070000C9465000C9465000C9465000C9465006C
:100080000C9465000C9465000C94650011241FBE4F
:10009000CFEFD0E4DEBFCDBF11E0A0E0B1E0E4EEF1
:1000A000FCE000E00BBF02C007900D92A63DB10737
:1000B000D9F712E0A6EDB1E001C01D92A136B1075B
:1000C000E1F70E941B050C9470060C940000CF937E
:1000D000C82F8A3019F48DE00E9467009091C0000B
:1000E00095FFFCCFC093C60080E090E0CF910895CB
:1000F000009719F0019791F136C0009938C08091AE
:10010000DC01811126C08091D701813021F08091DE
:10011000D6018130C1F41092DC0181E18093DB01D2
:100120001092DA011092D9011092D8011092D701E1
:100130001092D601E2E1F1E081E0808B868F84A706
:1001400081E090E0089581E08093DC0181E090E01F
:1001500008951092DC0181E090E0089581E000991B
:1001600080E090E008951092DC0180E090E0089536
:10017000009721F08130910551F014C02091DB01EE
:10018000293011F02931D1F4019B13C017C02091FF
:10019000DB01293011F0293179F4019B0FC080E097
:1001A00090E00CC01092DA011092D90180E090E04A
:1001B00005C081E090E002C080E090E081309105D0
:1001C00089F52091DB012930A1F0293141F4E0913A
:1001D000D901F0E0E35EFE4F3081313051F4293136
:1001E000D1F4E091D901F0E0E35EFE4F20812330AD
:1001F00091F03091DA0121E0303208F020E0230F55
:100200002093DA013091D90121E0303208F020E06A
:10021000230F2093D9012091DA01203219F421E033
:100220002093D801089540E050E00CC000002F5FFB
:100230003F4F02C020E030E0273063E03607B4F3E0
:100240004F5F5F4F48175907ACF308955E9888B920
:100250005F9A00005F9882E090E00E941301089589
:1002600081E00E9426010895813120F481580E9486
:100270002601089581550E942601089584E690E0A4
:100280000E94130188E30E94260186E00E94260155
:100290008FE00E94260181E00E9426018AE090E022
:1002A0000E94130108955E9A88B95F9A00005F98D2
:1002B00081E090E00E9413010895EF92FF920F9366
:1002C0001F93CF93DF93182FEB010E9430010EC0D4
:1002D00001E0010F812F0E9434017E018FEFE81AA7
:1002E000F80A88810E945301102FE701888181114B
:1002F000EFCFDF91CF911F910F91FF90EF90089575
:10030000E091DB01E13158F48091DA01AE2FB0E0E9
:10031000A80FB11DA352BE4F8C91823069F0E1311C
:1003200078F08091D901AE2FB0E0A80FB11DAE5F7B
:10033000BE4F8C91823021F481E08093D6010FC0B2
:10034000E03269F48091D901F0E0E80FF11DEE5F31
:10035000FE4F8081843019F481E08093D701809131
:10036000D601882361F01092DC010E9430016BE815
:1003700071E081E00E945D0180E00E94340180E034
:1003800090E00895CF93DF93EC0181309105A1F0C7
:1003900082309105E1F0009729F58091DC018823F6
:1003A00021F0039902C0019B23C0882391F1039B94
:1003B00030C0019920C02DC08091DC018823F1F06C
:1003C00003991FC0019B25C0C0E0D0E022C08091EE
:1003D000DC018823C9F0039B1AC001991AC0C0E050
:1003E000D0E017C081E18093DB01C0E0D0E011C014
:1003F000C1E0D0E00EC0C2E0D0E00BC0C0E0D0E071
:1004000008C0C0E0D0E005C0C0E0D0E002C0C0E05D
:10041000D0E0C130D10521F0C230D10589F02FC024
:100420008091DB01813059F1813149F1813120F432
:1004300081508093DB0123C081508093DB011FC07A
:100440008091D80181110EC08091DB018931B8F40F
:10045000813120F48F5F8093DB0111C08F5F809327
:10046000DB010DC08091DB01803248F4813120F442
:100470008F5F8093DB0103C08F5F8093DB018091EE
:10048000DC01882379F00E94300180E20E94530150
:100490008091DB010E94340180E00E94530180E0E2
:1004A0000E943401CE01DF91CF910895CF93DF9365
:1004B000EC0181309105A9F082309105F1F00097AF
:1004C00021F58091DC01882311F1029920C08091EF
:1004D000DB018131E0F080518093DB01C1E0D0E0AD
:1004E00016C080916002823090F08091DB01805FC5
:1004F0008093DB01C0E0D0E00AC08091DB01805F27
:100500008093DB01C0E0D0E002C0C0E0D0E02097E3
:1005100021F0C130D10521F00CC01092600209C059
:1005200080916002823010F48F5F01C080E0809380
:1005300060028091DB01811103C081E08093DB01C7
:100540008091D80181110FC08091DB018A508730E2
:1005500018F489E08093DB018091DB018A3118F087
:1005600089E18093DB018091DC01882379F00E948E
:10057000300180E20E9453018091DB010E9434012E
:1005800080E00E94530180E00E943401CE01DF919F
:10059000CF910895EF92FF921F93CF93DF93823014
:1005A000910589F02CF4009751F0019719F11FC0C3
:1005B0008430910599F06CF00597B1F018C0EE24E5
:1005C000E394F12C1BC00F2EF3E0EF2EF12CF02D55
:1005D00015C06894EE24E2F8F12C10C00F2EF5E05F
:1005E000EF2EF12CF02D0AC0E12CF12C07C0E12CEC
:1005F000F12C04C06894EE24E1F8F12C82E0E816B6
:10060000F10409F442C044F4E114F10491F081E0F2
:10061000E816F10421F190C084E0E816F10409F431
:1006200060C00CF448C085E0E816F10409F46FC01E
:1006300083C0E2E1F1E012861386148615861686E1
:1006400082E08787108E118E128E138E848F858F95
:1006500016A217A210A681A712A683A76DC0E2E179
:10066000F1E0128613861486158682E08687178647
:10067000108E118E128E838F848F158E16A217A264
:1006800080A711A682A713A657C0E2E1F1E0128667
:100690001386148682E0858716861786108E118E43
:1006A000828F838F148E158E16A287A310A681A722
:1006B00012A613A641C0E2E1F1E01286138682E0A1
:1006C0008487158616861786108E818F828F138EEB
:1006D000148E158E86A317A280A711A612A613A6A4
:1006E0002BC0E2E1F1E0128682E083871486158652
:1006F00016861786808F818F128E138E148E158E1C
:1007000016A287A310A611A612A613A615C0E2E191
:10071000F1E082E082871386148615861686178696
:10072000808F118E128E138E148E858F86A317A242
:1007300010A611A612A613A68091DC0181114FC04C
:100740008091D701811151C08091D60181114DC096
:100750006AEA71E081E00E945D0181E10E9434015A
:1007600080E00E94530180E20E94340184E00E94F4
:10077000530180E00E94340138C0C12FD0E0809145
:10078000DA01FE01E80FF11DE352FE4F808188235C
:1007900069F0812F0E9434018091DA01FE01E80F97
:1007A000F11DE352FE4F80810E9453018091D901D7
:1007B000FE01E80FF11DEE5EFE4F8081882369F097
:1007C00080E1810F0E9434018091D901C80FD11DB1
:1007D000CE5EDE4F88810E9453011F5F01C011E091
:1007E000113158F280E00E943401C701DF91CF91AE
:1007F0001F91FF90EF9008950F931F93CF938B015C
:1008000028E08202C001112480640E942601C0E019
:1008100009C0F801EC0FF11DC7FDFA9580810E9417
:100820005301CF5FC830ACF380E80E942601CF911E
:100830001F910F9108956093790170937A018093CD
:100840007B0190937C0160930E0270930F02809362
:1008500010029093110208958BE0809381008DE740
:1008600090E0909389008093880082E080936F00ED
:1008700010928500109284008091790190917A0104
:10088000A0917B01B0917C0180930E0290930F02A6
:10089000A0931002B09311028FB780688FBF0895A4
:1008A00010928100089581E08093120208951F92B2
:1008B0000F920FB60F9211240BB60F922F933F9306
:1008C0004F935F936F937F938F939F93AF93BF9358
:1008D000EF93FF9380910E0290910F02A09110026E
:1008E000B09111020197A109B10980930E02909372
:1008F0000F02A0931002B0931102892B8A2B8B2B2D
:1009000091F40E9453048091790190917A01A09111
:100910007B01B0917C0180930E0290930F02A09313
:100920001002B0931102FF91EF91BF91AF919F918F
:100930008F917F916F915F914F913F912F910F9088
:100940000BBE0F900FBE0F901F9018950F931F9323
:10095000CF93DF93B62FA72FF82FE92F022F132F56
:10096000D42FC52F04C0062F172FD82FC92F6B2FB8
:100970007A2F8F2F9E2F202F312F4D2F5C2F0E94EB
:100980004E06B02FA12FFD2FEC2F611571058105AB
:10099000910549F7602F712F8D2F9C2FDF91CF91FB
:1009A0001F910F910895F999FECF92BD81BDF89ADC
:1009B00080B50895F999FECF92BD81BD60BDFA9AC8
:1009C000F99A0895CF938091D701882381F11092ED
:1009D000DC0180912201833021F484E085B9C1E0FB
:1009E00001C0C0E080913001833019F4CF5F82E014
:1009F00085B980913E01833019F4CF5F81E085B9DC
:100A000080E090E00E94D3048C1728F46C2F80E0E3
:100A100090E00E94DA046AEB71E081E00E945D01DF
:100A200080E38C0F0E94530180E00E94340180E03B
:100A300090E0CF910895CF93DF93CDB7DEB72E9797
:100A40000FB6F894DEBF0FBECDBF11B81FEF14B9BB
:100A500017B91AB912B915B818B81BB828EC30E094
:100A600040E050E064E670E080E090E00E94A60480
:100A700028EC30E040E050E00E94A60428EC30E092
:100A800040E050E00E94A60428EC30E040E050E056
:100A90000E94A60428EC30E040E050E00E94A6044A
:100AA00028EC30E040E050E00E94A6044B015C01DD
:100AB00064E670E080E090E0A50194010E944E069B
:100AC00069017A0168EC70E080E090E0A501940192
:100AD0000E944E068EE0EDE7F1E0DE0111960190F6
:100AE0000D928A95E1F7E5E5F2E01083C182D282AA
:100AF000E382F482C582D682E782F08688E790E0BE
:100B000092878187EAE4F2E0108321833283438372
:100B10005483258336834783508782EC91E0928704
:100B20008187EFE3F2E01083218332834383548390
:100B3000258336834783508786E592E092878187B5
:100B4000E4E3F2E0108321833283438354832583DB
:100B500036834783508788EB90E092878187E9E26C
:100B6000F2E01083218332834383548325833683C9
:100B70004783508780E891E092878187EEE1F2E039
:100B800010832183328343835483258336834783B1
:100B900050878AEC92E092878187E3E1F2E010834C
:100BA000218332834383548325833683478350874D
:100BB00082EE94E092878187C501B4010E941B04F4
:100BC0000E942C040E943E0180E090E00E94D30429
:100BD0008F3F29F460E080E090E00E94DA0463E651
:100BE00071E080E00E94FC036BE571E081E00E940F
:100BF000FC0363E571E082E00E94FC036BE471E0BA
:100C000083E00E94FC0363E471E084E00E94FC0343
:100C1000E12CF12C38C0F701EE0FFF1FEC0FFD1F88
:100C200001811281D80115964D915D916D917C9154
:100C3000189711968D919D910D90BC91A02D4817FC
:100C400059076A077B0781F4D8011996ED91FC9149
:100C50001A978C91992787FD90950995F8018083C3
:100C60001582168217821086F80185819681A781E8
:100C7000B0850196A11DB11D85839683A783B0879A
:100C8000FFEFEF1AFF0A87E0E816F10420F28091E7
:100C900012028823E1F310921202BACFA1E21A2EB7
:100CA000AA1BBB1BFD010DC0AA1FBB1FEE1FFF1F10
:100CB000A217B307E407F50720F0A21BB30BE40B60
:100CC000F50B661F771F881F991F1A9469F76095A7
:100CD0007095809590959B01AC01BD01CF01089561
:040CE000F894FFCFB6
:100CE400262728292A2B18191A1B1C1D0A0B0C0D40
:100CF4000E0F0000000003000000000300000000CD
:100D040000000100000300030003000000000000D5
:100D140001000000000303030000000000000100C4
:100D24000300040F0F0F080808081F00000E1F1F00
:100D34001F1F1F00000F1F1F0F00000707011D07C3
:100D44000107050E0E0E150E040A11000000020024
:100D54000000006700000000000100000055024A86
:100D6400023F02340229021E021302202020202006
:100D7400596F75204C6F7365202020202020204758
:100D8400616D65204F76657221005363726F6C6CE0
:100D940065723A204D6172696F002020202020572F
:100DA400696E212020202020202020202053636FE2
:060DB40072653A20000008
:00000001FF
